:020000040800F2
:1000000000470020B1020008A15100086D3D000822
:10001000A14F000889120008516500080000000087
:10002000000000000000000000000000F1010008D6
:100030008B120008000000004D020008ED57000878
:10004000CB020008CB020008CB020008CB0200085C
:10005000CB020008CB020008CB020008CB0200084C
:10006000CB020008CB020008CB020008CB0200083C
:10007000CB020008CB020008CB020008CB0200082C
:10008000CB02000800000000CB020008CB020008F1
:10009000CB020008CB020008CB020008CB0200080C
:1000A000CB020008CB020008CB020008CB020008FC
:1000B00079580008CB020008CB020008CB020008E8
:1000C000CB020008CB020008CB020008CB020008DC
:1000D000CB020008CB02000845650008CB020008EF
:1000E000CB020008CB020008CB020008CB020008BC
:1000F000CB020008CB020008CB0200080000000081
:1001000000000000CB02000800000000CB02000845
:10011000CB02000800000000CB020008CB02000860
:10012000CB020008CB020008CB020008CB0200087B
:10013000CB0200080000000000000000CB02000815
:10014000CB020008CB020008000000000000000005
:10015000000000000000000000000000000000009F
:10016000000000000000000000000000CB020008BA
:10017000CB020008000000000000000000000000AA
:1001800000000000CB02000800000000000000009A
:10019000000000000000000000000000000000005F
:1001A0000000000000000000CB020008CB020008A5
:1001B000CB020008CB020008CB02000800000000C0
:1001C00000000000CB02000800000000000000005A
:1001D000CB020008CB020008DFF810D000F0A8FC2A
:1001E00000480047A1790008AFF3008000470020D5
:1001F0002C4B19680868B0E8F04F80F30988BFF30A
:100200006F8F4FF0000080F31188704700000000EE
:1002100008480068006880F308884FF0000080F309
:10022000148862B661B6BFF34F8FBFF36F8F00DFE4
:1002300000BF00BF08ED00E0DFF80C00016841F4EA
:1002400070010160704700BF88ED00E0EFF30980A6
:10025000BFF36F8F134B1A681EF0100F08BF20ED0D
:10026000108A20E9F04F106009B44FF0500080F37D
:100270001188BFF34F8FBFF36F8F08F031FB4FF042
:10028000000080F3118809BC19680868B0E8F04FD5
:100290001EF0100F08BFB0EC108A80F30988BFF37E
:1002A0006F8F704738010020EFF305807047000022
:1002B0000648804706480047FEE7FEE7FEE7FEE700
:1002C000FEE7FEE7FEE7FEE7FEE7FEE76958000807
:1002D000D90100082DE9F05F0546002092469B46B3
:1002E00088460646814640241BE02846414647464C
:1002F000224600F0AEFA53465A46C01A914110D336
:1003000011461846224600F095FA2D1A67EB0108AF
:100310004F4622460120002100F08CFA17EB00091D
:100320004E41201EA4F10104DFDC484631462A4636
:100330004346BDE8F09F40EA01039B0703D009E074
:1003400008C9121F08C0042AFAD203E011F8013BC1
:1003500000F8013B521EF9D27047D2B201E000F81A
:10036000012B491EFBD270470022F6E710B5134659
:100370000A4604461946FFF7F0FF204610BDCAB2F0
:10038000401E10F8011F8A4202D00029F9D1002036
:100390007047421C10F8011B0029FBD1801A7047DE
:1003A00030B505460020034600E05B1C934205D2B1
:1003B000EC5CC85C201A01D1002CF6D130BD2DE9CF
:1003C000FE4F804681EA0300C00F0C46009021F0EA
:1003D000004123F00045B8EB0200A94105D2404698
:1003E000214690461C460B46024623F0004010432F
:1003F00047D0270DC7F30A00C3F30A510290401AF1
:10040000019040286BDAC3F3130040F4801B00987E
:10041000924620B10023D2EB030A63EB0B0B019849
:100420005946C0F14002504600F004FA06460D4617
:1004300050465946019A00F01CFA10EB0800614141
:10044000002487EA115284EAE7731A4340D0009AE5
:1004500062B3019A012A4FEA075215DC001B61EBD7
:1004600002014FF0004202EA0752CDE90042001CAF
:1004700041F5801132462B4600F0A2FA03B0BDE8E8
:10048000F08F40462146F9E7001B61EB0201001C9A
:1004900041F5801300185B412018A2F5001747EBC7
:1004A000030140EAD570B6196D4111E06D084FEABD
:1004B000360645EAC0754FEA0752001B61EB0201A0
:1004C000001C41F5801149084FEA300000195141E4
:1004D00032462B4603B0BDE8F04F00F062BA0098F8
:1004E000012240000023D0EB020263EBE07300988E
:1004F00021464FEAE074B8EB000061EB0401E9E744
:1005000083F000435BE781F0004158E72DE9FE4F9F
:1005100081EA030404F0004421F0004100944FF00C
:10052000000B23F0004350EA01045ED052EA0304BA
:100530005BD0C3F30A54C1F30A552C44A4F2F3343C
:100540000194A0FB0254C1F3130141F48011C3F3E1
:10055000130343F4801301FB024400FB034E840A9F
:10056000970A44EA815447EA8357A4FB0768029537
:100570008D0A05FB07854FEA932C04FB0C542705D5
:10058000029D4FEA065847EA1637B5EB08056EEBB1
:10059000070C870E920E47EA811742EA8312A7FBE7
:1005A0000201B6EB0B0164EB00042B0D43EA0C33A4
:1005B0005E1844EB1C50DA465146E7FB0201C5F3D6
:1005C00013044FEA0B3343EA14534FEA0432019CFD
:1005D00043EA0603A4F10C040294009CCDE900B4A4
:1005E00000F0EEF903B0BDE8F08F00200146F9E716
:1005F0002DE9F04D81EA030404F0004B21F00045A1
:1006000014464FF0000A23F0004150EA050220D0C2
:1006100054EA01021DD0C5F30A570246C5F313037D
:10062000C1F31300C1F30A5640F4801543F480135C
:10063000A7EB0608101BD64608F2FD3873EB050041
:1006400002D308F1010801E092185B41B8F1000FF4
:1006500003DA00200146BDE8F08D00204FF4801140
:10066000064684460EE0171B73EB050705D3121BE5
:1006700063EB050306434CEA010C49084FEA3000DE
:1006800092185B4150EA0107EDD152EA030012D003
:1006900082EA040083EA0501084305D0101BAB4140
:1006A00006D20122002306E000224FF0004302E0C0
:1006B0006FF0010253101AEB06004CEB085110EBDF
:1006C0000A0041EB0B01BDE8F04D00F06AB90EB530
:1006D000C10F80EAE0700844CA07002140F23343AA
:1006E0008DE80E000A460B4600F06AF903B000BD23
:1006F0000EB540F2334102910021CDE900110A46C6
:100700000B4600F05DF903B000BD70B5C1F30A52AD
:1007100001F000450024C1F3130140F2FF3341F41E
:1007200080119A4201DA002070BD40F233439A42B0
:10073000A2F2334203DC524200F08BF800E090401A
:100740002C43F1D0404270BD00F0004230F0004038
:100750000AD0C10D01F56071C0F3160042EA0151E3
:10076000C20840071143704700200146704700004F
:1007700030B5041E71F1000404DB4FF00044404228
:1007800064EB0101141E73F1000405DB1C464FF0FD
:100790000043524263EB04038B4208BF824230BDE8
:1007A00030B5041E71F1000404DB4FF000444042F8
:1007B00064EB0101141E73F1000405DB1C464FF0CD
:1007C0000043524263EB0403994208BF904230BD9C
:1007D00001F0004330B421F0004150EA010206D09C
:1007E0000A0DA2F56072C1F31301002A02DC30BCCD
:1007F00000207047440F44EAC104C100E01830BC37
:1008000000EBC25000F096B830B50B460146002010
:100810002022012409E021FA02F59D4205D303FAC2
:1008200002F5491B04FA02F52844151EA2F1010243
:10083000F1DC30BD202A04DB203A00FA02F100206E
:1008400070479140C2F1200320FA03F3194390400E
:100850007047202A04DB203A21FA02F00021704779
:1008600021FA02F3D040C2F1200291400843194618
:100870007047202A06DBCB17203A41FA02F043EA00
:10088000E07306E041FA02F3D040C2F12002914049
:1008900008431946704700000FB4002300B589B023
:1008A0000CA900910B996FF00042CB601E4B069390
:1008B0001E4B07930423CDE901321D4A08920246DC
:1008C0006B46002000F0E0F909B05DF814FB70B54C
:1008D00086B006464FF0FF300091CDE901010020BF
:1008E00015460C4604903246694604A8FFF7D4FF2B
:1008F00002460498211825B108B1084600E02046B8
:100900002860049800280DD0002A02DD0098884253
:1009100008D0081B0094CDE901043246694604A8BA
:10092000FFF7BAFF06B070BDC10E0008DF0E000869
:10093000550B00080029A8BF7047401C490008BF9C
:1009400020F00100704710B4B0FA80FC00FA0CF0FF
:1009500050EA010404BF10BC704749B1CCF1200437
:1009600021FA04F411FA0CF118BF012121430843C4
:10097000A3EB0C01CB1D4FEA00614FEA102042BFF0
:10098000002010BC704700EBC35010440029A4BFE6
:1009900010BC7047401C490008BF20F0010010BC8B
:1009A000704710B5141E73F1000408DA401C41F1C1
:1009B000000192185B411A4301D120F0010010BDE3
:1009C0002DE9F04D92469B4611B1B1FA81F202E059
:1009D000B0FA80F220329046FFF72CFF04460F4613
:1009E00040EA0A0041EA0B0153465A46084313D035
:1009F000114653EA010019D0C8F140025046FFF7F2
:100A000028FF05460E46504659464246FFF712FF5C
:100A1000084305D0012004E020463946BDE8F08DAA
:100A20000020054346EAE0762C4337430A986305E5
:100A3000E40AA0EB08000022FD0A44EA47540A3009
:100A400002D500200146E9E7010510196941DDE9F9
:100A5000084500196941BDE8F04DA2E72DE9F04DC8
:100A600000231A461B1A8A4103DB00200146BDE819
:100A7000F08DC1F30A52C1F3130141F480154FF018
:100A8000000BD10702D100186D41521E0027044609
:100A900040F2FF11384601EB620A3E4680460246AC
:100AA00000204FF48011FFF7D4FEC2197141BB182A
:100AB00046EB0100B4EB030C75EB000C04D3E41A15
:100AC00065EB000517460E46241908F101006D413B
:100AD00080463428E3DDF91946EB0600091BA841DE
:100AE00003D24FF0FF32134601E0002213461BEB06
:100AF000070046EB0A51BDE8F04DFFF752BFC1F3C6
:100B00000A52C1F3130140F2FF3341F480119A42BB
:100B100002DA00200146704740F233439A42A2F2C3
:100B2000334202DC5242FFF794BEFFF783BE00005F
:100B3000064C074D06E0E06840F0010394E807002A
:100B400098471034AC42F6D3FFF74AFB20A00008C8
:100B500040A00008C0B24FF4F05100F0D1B900003D
:100B60002DE9FF4F087883B09946FF2805D0491C2E
:100B70002D2804D00024002008E000200BE00124F0
:100B8000F9E700EB800003EB4000491C0B78FF2BDA
:100B9000F7D104B1404200230293147819461D4650
:100BA0002D2C01D02B2C04D1521C2D2C13D0002421
:100BB0000294AA461478FF2C0FD00A25A3FB0578CF
:100BC00001FB05814FF0000C03FB0C11521CE319D3
:100BD0004AEB0101EEE70124EAE7814453EA010010
:100BE00002D019F5C87F06DA03980021C0E9001188
:100BF00007B0BDE8F08F0025AE4E2F46DFF8B88273
:100C0000184600F091F9CDE90001B9F1000002DACF
:100C1000C9F1000400E004460023A74A1AEB030BC5
:100C200042EB045A12E0E00707D02A463346384622
:100C30004146FFF76BFC074688462A463346104676
:100C40001946FFF763FC05460E466410002CEAD1F6
:100C5000DDE90001B9F1000F5A46534606DAFFF705
:100C6000C7FC3A464346FFF7C3FC05E0FFF74EFCDE
:100C70003A464346FFF74AFC029A0AB181F0004126
:100C8000039AC2E90001B3E72DE9FF4F1F468DB07B
:100C9000D7E901464FF0FF382E2045464FF00009B6
:100CA0000B90B9696D1C0E988847396A824688474F
:100CB0000028F6D1BAF1FF3F0AD024F4D064002E08
:100CC00011DDBAF12B0F08D0BAF12D0F0BD102E0D4
:100CD000404611B08DE744F48064B9696D1C0E98EC
:100CE00088478246761E6946600501D52D2000E0C2
:100CF0002B208DF8000001F1010B0DF1200809E017
:100D0000B9696D1C0E98884782460F9844F40074A8
:100D1000761E0560002E02DDBAF1300FF0D00B997F
:100D20008A453ED144F0800406E00F99681CA9F181
:100D3000010944F400740860B9696D1C761E0E98B0
:100D4000884782463028F0D02BE00B998A4505D1A0
:100D5000200603D444F08004761E18E0504606F0C6
:100D60005DFA08B30DF11301761E44F400748B454F
:100D700008D2AAF130000BF8010B200607D5A9F123
:100D8000010003E0200602D409F101008146A0051C
:100D900002D50F99681C0860B9696D1C0E988847C8
:100DA0008246002ED1DC53E0002E51DDBAF1650FF2
:100DB00002D0BAF1450F4BD1A00549D5B9696D1CD8
:100DC00024F44074761E0E9888478246002E0CDD6F
:100DD0002B2804D0BAF12D0F07D144F48074B969DF
:100DE0006D1C0E9888478246761EE00501D52D21A0
:100DF00000E02B2108F8011BCDF82C8021E00DF13B
:100E00002901761E44F4007488450CD2AAF1300002
:100E100010F0FF0088F8000002D10B99884509D92D
:100E200008F1010806E0E00501D5244801E042F29E
:100E30000F708146B9696D1C0E98884782460F98DD
:100E40000560002E04DD504606F0E8F90028D6D1F2
:100E5000F9690E988847FF208BF8000088F8000099
:100E60000020069007904B466A4608A906A8FFF79F
:100E700077FEA00502D46FF001002AE714F0240FDA
:100E80000AD0E00714D1DDE906123868031D3B6083
:100E90000068C0E900120BE0DDE90601FFF798FCED
:100EA0000146E00704D13868021D3A60006801601D
:100EB00028460EE7000014400000F03FF1D8FFFF85
:100EC000426842B1016811F8013B23B1521EC0E9EA
:100ED0000012184670470121C160881E70474268A1
:100EE0005AB1C368016843B983688B4205D0491E73
:100EF000521CC0E90012002070474FF0FF307047CD
:100F00007F2801D9002208E0064A02EB5002C00700
:100F1000127800D1120902F00F020120904008401F
:100F200070470000C09E00080EB540F233420292A6
:100F30000022CDE900221346FFF742FD03B000BDB9
:100F400070B58C1810F8015B15F0070301D110F88B
:100F5000013B2A1106D110F8012B03E010F8016BB8
:100F600001F8016B5B1EF9D12B0705D40023521E3B
:100F70000DD401F8013BFAE710F8013BCB1A921CA3
:100F800003E013F8015B01F8015B521EF9D5A142A1
:100F9000D8D3002070BD000070B50D460446FFF7A1
:100FA000F8F982B24FF47A732146044802F082FEC7
:100FB0002846BDE8704006F016BD0000C8040020B9
:100FC00070B5044692B01A200E468DF840002146B6
:100FD00014A005F0D9FA4FF4FA75294618A0FFF7C6
:100FE000DBFF294619A0FFF7D7FF22461CA1684660
:100FF00005F0F4FA29466846FFF7CEFF6421304633
:10100000FFF7CAFF6B00012210A9194802F052FE37
:1010100041F2883006F0E7FC16A005F0B5FA12B0F0
:1010200070BD00005B534D535D20BFAACABCB7A280
:10103000CBCDB6CCD0C5D6C12025730D0A0000009B
:1010400041542B434D47463D310D0A0041542B433B
:101050005343533D2255435332220D0A00000000F2
:1010600041542B434D47533D222573220D0A000066
:10107000C80400205B534D535D20B7A2CBCDCDEA11
:10108000B3C90D0A000000002DE9F0410446002715
:101090000D46006803F02AFA0646206803F022FA9B
:1010A00030435DD02068C1682E4E890105D5617F2F
:1010B000012902D1217F01290BD0022D1DD02068EA
:1010C00003F014FAB8B120688168C1F3400169B136
:1010D00011E00125244902E08F4232D27F1C0268D0
:1010E000D2435206F8D440210160E8E781683140DC
:1010F00041F010018160012D11D0206803F0F2F958
:1011000048B120688168C1F3400121B9816831404C
:1011100041F020018160022D08D0032D04D0042568
:1011200000F02AFF064617E00C25F9E70825F7E747
:1011300000F022FF801B05280ED920688068284215
:101140000AD0E06D40F01000E065206E40F0010034
:1011500020660120BDE8F081206880682842E7D140
:101160000020F7E7C0FFFF7F000040A370B50446F2
:10117000006881688268C1F3400112F0010F28D035
:1011800039BB816801F00D01012914D18168124A2F
:101190001140891C816021680320086000F0ECFE8A
:1011A000054612E000F0E8FE401B02280DD9206839
:1011B0008068C00709D0E06D40F01000E065206E47
:1011C00040F001002066012070BD20688068C007E3
:1011D000E8D1002070BD0000C0FFFF7FF8B50446D5
:1011E000002000902068816811F0010F41D18168D2
:1011F000214A11422ED18168D5432940491C816082
:101200001E48806800F0E07000020DD51C481D49A2
:101210000068B0FBF1F0401C00EB4000800000E0F3
:10122000401E00900028FBD100F0A6FE06461BE001
:10123000816811F0010F03D181682940491C816048
:1012400000F09AFE801B02280ED920680068C04377
:10125000C00709D0E06D40F01000E065206E40F05E
:10126000010020660120F8BD20680168C943C90754
:10127000DED10020F8BD00003F00008000030050D8
:1012800034010020400D0300FEE7704772B6FEE710
:101290002DE9F047044690F858009CB00E464FF0F8
:1012A0000009012815D0012084F858000025179561
:1012B000189520684FF0A04840450ED1284F009760
:1012C000384603F017F98246206803F013F960B13D
:1012D0000EE002201CB0BDE8F087E06D40F0200079
:1012E000E06584F858500120F4E7BAF1000F09D006
:1012F000E06D40F02000E0654FF0010984F858509F
:101300004846E7E71748326840F61F71002A8268AE
:1013100022F4604216D094F8383042EA43327368BF
:101320001A438260D8F80820BB6802F0010203F07B
:1013300001031A43E2D1B36832681A4383688B43CE
:101340001A430BE08260D8F80820BB6802F0010263
:1013500003F001031A43D1D182688A438260CDE74A
:1013600000010050000300502DE9F84F002704460B
:10137000009790F85800DFF8E0930D46B846012832
:1013800011D0012684F85860206803F0AFF860B1EE
:10139000E06D40F02000E0655FF0010784F85880C0
:1013A0003846BDE8F88F0220FBE7D5E900210C2381
:1013B000206803EA91131844036B01F01F014FF0FA
:1013C0001F0C0CFA01FCC2F3846223EA0C038A406E
:1013D00013430363206803F089F88246206803F012
:1013E00081F85AEA00003CD1AA6829682068B2F165
:1013F000004F37D003F08AF82068416921F000419E
:10140000416120686969C268C2F3C102520091401B
:101410002A69042A31D000EB82002B68026EDFF8C3
:101420003CC303F0F84302EA0C020B431A4342F0B8
:101430000041016620682A69A96900EB8200026EFA
:1014400022F080720A430266297F226828690129F6
:1014500010D0002102EB8000026E22F000720A43DD
:1014600002667DE0002203F051F82068416941F0F6
:101470000041C5E74FF00071ECE7002103F02CF8C4
:10148000400320684FF0000172D003F025F890FA75
:10149000A0F0B0FA80F1286842036ED090FAA0F074
:1014A000B0FA80F0814204D100221146206803F096
:1014B0003CF80121206803F00FF8400320684FF04A
:1014C00001015DD003F008F890FAA0F0B0FA80F1C5
:1014D0002868420359D090FAA0F0B0FA80F0814217
:1014E00004D100220121206803F01FF802212068A6
:1014F00002F0F2FF400320684FF0020148D002F0F2
:10150000EBFF90FAA0F0B0FA80F12868420344D0D3
:1015100090FAA0F0B0FA80F0814204D100220221BA
:10152000206803F002F80321206802F0D5FF400391
:1015300020684FF0030133D002F0CEFF90FAA0F004
:10154000B0FA80F1286842032FD090FAA0F0B0FAE8
:1015500080F0814204D100220321206802F0E5FFDF
:101560002068816811F0010F22D0ACE000E004E0B7
:1015700002F0B2FFC0F384618DE7C0F3846091E7AD
:1015800002F0AAFFC0F38461A2E7C0F38460A6E77B
:1015900002F0A2FFC0F38461B7E7C0F38460BBE749
:1015A00002F09AFFC0F38461CCE7C0F38460D0E717
:1015B0002A7B296850F8B03FC1F3120C23EA0C03D0
:1015C00002F0180C664A22FA0CF20A401343036038
:1015D000E968494577D1286841031CD090FAA0F109
:1015E000B1FA81F1491C01F01F0109294FEA40318C
:1015F00032D8002912D000BF90FAA0F1B1FA81F1DF
:1016000001F1010101F01F0106FA01F609D100BF45
:10161000C0F3846109E0C0F38461E3E7C0F384614F
:10162000EEE790FAA0F1B1FA81F101F1010101F0C8
:101630001F0146EA816102D1C0F3846003E090FAA1
:10164000A0F0B0FA80F000F1010000F01F0000EB04
:10165000400041EA005132E000290ED090FAA0F19A
:10166000B1FA81F101F1010101F01F0106FA01F661
:1016700006D100BFC0F3846106E0C0F38461F1E7E6
:1016800090FAA0F1B1FA81F101F1010101F01F011D
:1016900046EA816102D1C0F3846003E090FAA0F0D1
:1016A000B0FA80F000F1010000F01F002D4A00EBBD
:1016B000400002EB005041EA000141F00071AA68CD
:1016C000206802F023FF28482A6802423FF466AEF1
:1016D00026488168264B01F0E0719A4202D0254BE2
:1016E0009A421CD10B021AD42268B2F1A04F7FF4A7
:1016F00055AE826841F4000122F0E0720A43826034
:101700001D481E490068B0FBF1F0401C00EB400092
:10171000800000E0401E00900028FBD13EE6184DFE
:10172000184BAA4207D1CD0105D422689A42F5D0C0
:1017300041F0807109E0144DAA42EFD14A02EDD484
:1017400022689A42EAD041F48001826822F0E07275
:101750000A43826022E6000000007F4000F0FF03A1
:10176000FFFF0700000020FE00000880000300507B
:10177000000021C31000C09034010020400D030080
:10178000000052C700010050000084CB0068006CCC
:1017900070470000F8B54FF0000504002E46009594
:1017A00002D0E06D10B107E00120F8BD204600F046
:1017B000EBF8266684F8586020688168C1F34071B0
:1017C00019B18168684A1140816020688168C1F35D
:1017D000007189B98168654A114041F0805181608A
:1017E000634864490068B0FBF1F04000801C00E0F1
:1017F000401E00900028FBD120688168C1F3007171
:1018000041B9E16D41F01001E165216E41F0010146
:101810002166012502F06AFEE16DC90600D430B1EF
:10182000E06D40F01000E06501252846F8BDE06D50
:1018300020F4807040F00200E0652068806810F0BD
:10184000010F11D14FF0A04080684B4900F001001A
:10185000896801F00101084306D14848616882683F
:1018600022F47C120A438260E168E06B627F0843E5
:10187000A16841EA4231084394F8241040EA01404B
:10188000012904D1218D3E4A02EB41410843E16A1E
:1018900029B101F47871226B014342EA0100226808
:1018A000D168384B19400143D16020680169626BEF
:1018B00021F0406111430161206802F013FE70BB0A
:1018C000207F94F83810800340EA41022168C868FC
:1018D00044F2020398431043C8602069002820683E
:1018E00001690AD041F480310161206850F8C01FBD
:1018F00022696FF30D01114307E021F4803101618A
:10190000206850F8C01F6FF30D01016094F840008B
:1019100001280CD02068016921F001010161606992
:1019200001282068016B21F00F0111D013E0D4E9E8
:1019300011010843D4E913121143084321680A69CD
:1019400040F2FC739A43104340F001000861E6E75F
:10195000226A521E11430163E06D20F0020040F044
:101960000100E06561E70000C0FFFF5FC0FFFF7F8F
:1019700034010020400D030000010050000300501E
:101980000000FEFF0740F0FF10B598B00446142198
:1019900011A8FEF7E9FC44216846FEF7E5FC206843
:1019A000B0F1A04F26D14FF40040009080030F907B
:1019B000684600F075FE08B1FFF768FC0E48C16C80
:1019C00041F40051C164C16C01F400511691C16C25
:1019D00041F00101C164C06C11A900F00100169032
:1019E0000120119003201290002013904FF090409E
:1019F00000F0A2F918B010BD001002402DE9F0412E
:101A000004463B480F46816801F01F05A16908297B
:101A10000FD085B1052D0ED0092D0CD0806800F4B3
:101A2000604060B1E06D40F02000E0650120BDE85D
:101A3000F081082604E02068C068C007F1E70426AA
:101A400000F09AFA804615E0781C13D000F094FA62
:101A5000A0EB0800B84200D867B92068006830429F
:101A600008D1E06D40F00400E065002084F85800E3
:101A70000320DCE7206800683042E5D0E06D40F4E8
:101A80000070E065206802F039FD80B1607F70B9B8
:101A90002068006800070AD5E06D20F48070E065DA
:101AA000E06DC00403D4E06D40F00100E065114A30
:101AB00020684FF0A041904201D10B4600E0034660
:101AC000834210D07DB1052D0DD0092D0BD0904251
:101AD00000D00146C968082E07D0490401D40C2162
:101AE00001600020A3E7C168F5E70821F8E70000DE
:101AF00000030050000100502DE9F0410446384831
:101B0000806800F01F05206802F0F0FC18B1022187
:101B10000846BDE8F08194F8580001280CD0012057
:101B200084F858002046FFF759FB01004FF00003EE
:101B300004D084F85830EBE70220EAE7E06D40F685
:101B40000162904340F48070E065264A20684FF0BF
:101B5000A046904201D1374600E00746874200D0B8
:101B60001DB9E76D27F48017E765E76DFF0404D51D
:101B7000276E27F00607276600E023661C2707600C
:101B800084F858302068904201D1334600E0034683
:101B9000834215D0A5B1052D12D0092D10D0E36DCB
:101BA00043F48013E365904200D13046C068800161
:101BB000AED5E06D20F4005040F48050E065A7E71A
:101BC000C268920105D5E26D22F4005242F48052BF
:101BD000E2658268044B1A40121D826098E700009B
:101BE0000003005000010050C0FFFF7F10B5044605
:101BF00090F85800012808D0012084F858000321EB
:101C00002046FFF741FA10B10BE0022010BD20463C
:101C1000FFF7ACFA28B9E16D21F4885141F00101D8
:101C2000E165002184F8581010BD10B5002140B1C5
:101C300090F825300122022B05D00421C163012137
:101C400024E0012010BD03681C6824F001041C601E
:101C500003681C6824F00E041C60836C1C6824F468
:101C600080741C6090F84430046C03F01F0302FA87
:101C700003F36360D0E913345C60436D33B11C68D7
:101C800024F480741C60D0E916345C6080F8252050
:101C9000002280F82420084610BD70B590F8252059
:101CA000002401212346022A07D00422C26380F8BF
:101CB000251080F82430012429E00268156825F0F9
:101CC000010515600268156825F00E051560826C27
:101CD000156825F48075156090F84420056C02F0B5
:101CE0001F0201FA02F26A60D0E913255560426DC5
:101CF00032B1156825F480751560D0E91625556058
:101D000080F8251080F82430816B01B18847204687
:101D100070BD000070B5044600F02EF90546601C49
:101D200002D004484068044400F026F9401BA04259
:101D3000FAD370BD280100202DE9F04FDFF80C9296
:101D4000002301260325A9F1040B85B00F2709F113
:101D5000040AABF1040EF1E006FA03FC12EA0C02ED
:101D60007ED00C7904F00304012C01D0022C20D188
:101D7000846800945C0005FA04F80494009C24EA4A
:101D800008040094D1F80C80049C08FA04F8009C24
:101D900048EA0408C0F80880446824EA0C0491F872
:101DA00004C0CCF3001C0CFA03FC4CEA040CC0F891
:101DB00004C00C79E443A40702D18C68012C0ED036
:101DC000C4684FEA430805FA08FC24EA0C04D1F879
:101DD00008C00CFA08FC4CEA040CC0F80CC00C79E2
:101DE00004F00304022C16D1DC0800EB840CCDF8BF
:101DF00008C0DCF820C05C074FEAD46807FA08F492
:101E00002CEA040C0C6904FA08F444EA0C04DDF82A
:101E100008C0CCF8204004684FEA430805FA08FCE3
:101E200024EA0C0491F804C00CF0030C0CFA08FC32
:101E30004CEA040CC0F800C04C6814F4403F7CD05D
:101E4000434CD4F860C04CF0010CC4F860C0246E60
:101E500023F0030C04F0010400943E4C644400E0C1
:101E60006BE00294A4684FEA837C4FEA1C7807FA7F
:101E700008FC24EA0C04B0F1904F06D0DFF8D8C07B
:101E8000604505D14FF0010C20E04FF0000C1DE043
:101E9000DFF8C8C0604502D14FF0020C16E0DFF851
:101EA000C0C0604502D14FF0030C0FE0DFF8B4C0B2
:101EB000604502D14FF0040C08E0DFF8ACC060458B
:101EC00002D14FF0050C01E04FF0060C0CFA08FCB3
:101ED0004CEA040C029CC4F808C0D9F80040CC4677
:101EE000D1F8048094435FEAC82800D51443CCF8A5
:101EF0000040DAF80040D446D1F8048094435FEA09
:101F0000882800D51443CCF80040DBF80040DC46BC
:101F1000D1F8048094435FEA883800D51443CCF8A4
:101F20000040DEF80040F446D1F8048094435FEAB4
:101F3000C83800D51443CCF800405B1C0C6822461E
:101F4000DC407FF409AF05B0BDE8F08F0804014024
:101F50000010024000000140000400480008004852
:101F6000000C004800100048001400480AB18161CC
:101F70007047816270470000014880687047000028
:101F80002801002090F84120202A24D190F84020F8
:101F9000012A20D0012280F84020242280F841200C
:101FA0000268136823F0010313600268136823F4C6
:101FB00080531360026813680B43136001680A685A
:101FC00042F001020A60202180F84110002180F8CF
:101FD0004010084670470220704790F84120202AA0
:101FE00022D190F84020012A1ED0012280F8402002
:101FF000242280F841200268136823F00103136053
:102000000268136823F4706343EA012111600168D8
:102010000A6842F001020A60202180F84110002184
:1020200080F84010084670470220704770B50400E1
:1020300004D094F84100002510B106E0012070BDE5
:1020400084F84050204600F0ADF9242084F8410087
:102050002068016821F0010101606068216820F0BA
:10206000706008612068816821F400418160E06847
:102070000128A06830D040F4044021688860E068FE
:102080000228206841682AD021F40061416020685C
:102090004168144A114341602068C16821F400413D
:1020A000C160D4E904010843A16940EA0120216824
:1020B000C860D4E907010843216808602068016806
:1020C00041F0010101606564202084F8410025632E
:1020D00084F84250002070BD40F40040CDE741F448
:1020E0000061D3E7008000022DE9FF4F83B0044672
:1020F000DDE9108790F84100DDF848909A46934654
:10210000202874D15FEA080014D09FB194F84000F1
:1021100001286CD0012084F84000FFF72DFF06460F
:10212000012200901923D103204602F055F800281F
:1021300071D103E04FF4007060646CE0222084F8F9
:102140004100402084F8420000256564C4F82480E2
:1021500067856563CDE9009653465A462046049943
:1021600001F0BEFF10B184F8405054E0618D354855
:10217000FF274FF080784FF0007AFF2904D9278598
:102180003A464346009005E0618D2185009094F821
:10219000282053462046049902F006F84B460022B8
:1021A00004212046009602F017F8A0BB2068406A80
:1021B000616A0870606A401C6062208D401E81B2B6
:1021C0002185608D401E6085608DD8B1D1B94B46A8
:1021D000002280212046009601F0FEFFD8B9608DD4
:1021E000FF2805D927853A464346009506E026E0B4
:1021F000608D2085009594F8282053462046049948
:1022000001F0D2FF608D0028C8D1324649462046F1
:1022100002F01FF818B1012007B0BDE8F08F216867
:102220002020C86121684A68074B1A404A6084F838
:10223000410084F8425084F840500020ECE702202E
:10224000EAE700000024008000E800FE2DE9FF4FCF
:1022500083B00446DDE9108790F84100DDF848902E
:102260009A469346202871D15FEA080014D09FB1A6
:1022700094F84000012869D0012084F84000FFF75D
:102280007BFE0646012200901923D103204601F06F
:10229000A3FF00286ED103E04FF40070606469E092
:1022A000212084F84100402084F842000025656424
:1022B000C4F8248067856563CDE9009653465A4685
:1022C0002046049901F03EFF10B184F8405051E0DF
:1022D000608DFF274FF080784FF0007AFF2804D9F7
:1022E00027853A464346009505E0608D2085009598
:1022F00094F8282053462046049901F055FF3246B1
:102300004946204601F0D0FFA0BB606A21680078F2
:102310008862606A401C6062608D401E6085208D0E
:10232000401E80B22085618DD9B1D0B94B460022C4
:1023300080212046009601F04FFFD8B9608DFF281C
:1023400005D927853A464346009506E026E0608D8C
:102350002085009594F8282053462046049901F0E2
:1023600023FF608D0028CAD132464946204601F03D
:1023700070FF18B1012007B0BDE8F08F2068202160
:10238000C16120684268064B1A40426084F84110DF
:1023900084F8425084F840500020ECE70220EAE73D
:1023A00000E800FE2DE9F04397B00446142111A87F
:1023B000FDF7DAFF44216846FDF7D6FF354920686E
:1023C000354C1226042700254FF090494FF0800825
:1023D000884235D1402000900695684600F060F9AB
:1023E00008B1FEF753FFE06C40F00100E064E06CE0
:1023F00000F001001690E06C40F00200E064E06C38
:10240000CDE9126500F0020016904FF40040CDE9CE
:102410001457119011A94846FFF78EFCCDE91265BB
:10242000CDE91457CDF8448011A91C48FFF784FC6E
:10243000A06D40F40010A065A06D00F4001025E030
:102440001749884223D16846CDF80080079500F0EF
:1024500027F908B1FEF71AFFE06C40F00100E064D4
:10246000E06CCDE9126500F0010016904FF4407069
:10247000CDE91457119011A94846FFF75DFCA06DF6
:1024800040F48000A065A06D00F48000169017B0A5
:10249000BDE8F083005400400010024000040048F2
:1024A00000580040024881684268114481607047CA
:1024B0002801002010B50024032000F079F80F2037
:1024C00000F008F808B1012401E000F025F82046EA
:1024D00010BD000070B50E4E05460024706898B11E
:1024E0004FF47A71B1FBF0F00A490968B1FBF0F0E2
:1024F00000F064FD40B9102D06D200222946501E7E
:1025000000F036F8356000E00124204670BD000080
:1025100028010020340100200D4808B5016E41F06B
:1025200001010166016E01F001010091816D41F030
:1025300080518165806D002200F0805000900F2155
:10254000901E00F015F8BDE8084000F0A1B80000AA
:1025500000100240002809DB00F01F020121914019
:102560004009800000F1E020C0F800117047000031
:10257000F0B40E4B1B680C46C3F30223C3F10705EE
:10258000042D00D90425191D072901D2002300E0DC
:10259000DB1E012606FA05F1491E214099409E40A6
:1025A000761E16403143F0BC04F057B80CED00E045
:1025B000064900F0070208684FF6FF03184040EA9A
:1025C0000220034A10430860704700000CED00E051
:1025D0000000FA052B492C4B0A6832214A432B494B
:1025E00040B1B0F5007F086829D020F4C06040F405
:1025F00080602CE00868C0F34120022804D051F824
:10260000800F20F4807022E0D1F8800020F48070E8
:10261000C1F88000086820F4C06040F400700860D1
:10262000B2FBF3F0401C00E0401E4A69520501D5A0
:102630000028F9D1486940050AD503207047C0F346
:102640004120022806D051F8800F40F480700860C5
:1026500000207047D1F8800040F48070C1F88000FD
:10266000086820F4C06040F400700860B2FBF3F02A
:10267000401C00E0401E4A695205DBD50028F9D114
:10268000D8E700003401002040420F0000700040F5
:102690000248816841F480418160704700700040C9
:1026A0002DE9F8430446006800269D4D00035ED5E1
:1026B000A86D0027C00008D4A86D40F08050A86520
:1026C000A86D012700F080500090DFF85892D9F8EB
:1026D000001041F48071C9F80010FFF74DFC8046EE
:1026E00006E000BFFFF748FCA0EB080002282BD84B
:1026F000D9F80000C005F5D5D5F8900010F4407069
:1027000014D0216C814211D0D5F89000D5F89010EA
:1027100020F4407041F48031C5F89010D5F8901045
:1027200021F48031C5F89010C5F89000C00711D091
:10273000FFF722FC804641F2883907E0FFF71CFCD6
:10274000A0EB0801494501D903260BE0D5F890001C
:102750008007F3D5D5F89000216C20F44070084331
:10276000C5F890001FB1A86D20F08050A8652078B2
:10277000C00707D0D5F88800616820F0030008433F
:10278000C5F888002078800707D5D5F88800A168AB
:1027900020F00C000843C5F888002078400707D5D2
:1027A000D5F88800E16820F030000843C5F88800BB
:1027B0002078000707D5D5F88800216920F0C000EF
:1027C0000843C5F888002078800607D5D5F888002A
:1027D000616920F440600843C5F88800207840060D
:1027E00007D5D5F88800A16920F440500843C5F802
:1027F00088002078000607D5D5F88800E16920F424
:1028000040400843C5F888002088C00507D5D5F8A2
:102810008800216A20F440300843C5F888002088E9
:10282000800507D5D5F88800616A20F44020084368
:10283000C5F88800208840050FD5D5F88800A16A22
:1028400020F440100843C5F88800A06AB0F5801F46
:1028500003D1E86840F48010E860208800050FD5B7
:10286000D5F88800E16A20F440000843C5F88800E4
:10287000E06AB0F5800F03D1E86840F48010E860AA
:102880002088C0040FD5D5F88800216B20F0407057
:102890000843C5F88800206BB0F1807F03D1E86859
:1028A00040F48010E86020884FF0006180040ED56D
:1028B000D5F88800626B20F040601043C5F88800AE
:1028C000606B884203D1E86840F48010E86020889B
:1028D00040040ED5D5F88800A26B20F0406010436C
:1028E000C5F88800A06B884203D1E86840F48010E6
:1028F000E860208800040FD5D5F88800E16B20F04F
:1029000040500843C5F88800E06BB0F1805F03D108
:10291000E86840F48030E8603046BDE8F8830000A5
:1029200000100240007000402DE9F0470E460500FF
:102930004FF0000725D0DFF8AC81D8F8000000F098
:102940000F00B0420CD2D8F8001021F00F01314333
:10295000C8F80010D8F8000000F00F00B04210D105
:102960002968614CC80741F2883A5AD06868DFF894
:102970007C91032808D0022820682DD0400500282B
:102980002CDB0120BDE8F08720688001F9D5E068E4
:1029900000F00302E068C0F30310401C032A19D0C2
:1029A000534A00BFB2FBF0F0E268C2F30622504384
:1029B000E268C2F34162521C5200B0FBF2F048459B
:1029C00017D9A06810F0F00F0CD0880711D5A868AF
:1029D00040B10EE0474AE5E78003D0E700F0B6F8E3
:1029E000484506D9A06820F0F00040F08000A060C3
:1029F0008027A068696820F003000843A060FFF703
:102A0000BBFA814606E000BFFFF7B6FAA0EB09016A
:102A100051453AD8A068696800F00C00B0EB810F0E
:102A2000F2D12868810714D5400703D5A06840F487
:102A3000E060A0602878000705D5A06820F4605009
:102A400040F4E060A060A068A96820F0F0000843AE
:102A500004E0802F03D1A06820F0F000A060D8F837
:102A60000010404601F00F01B14216D9016821F073
:102A70000F0131430160FFF77FFA074607E000BF0F
:102A8000FFF77AFAC11B514501D903207AE7D8F83C
:102A9000000000F00F00B042F2D12878400705D5C1
:102AA000A068E96820F4E0600843A0602878000787
:102AB00006D5A068296920F4605040EAC100A060F2
:102AC00000F044F8A1680C4AC1F30311515C01F015
:102AD0001F01C8400949086009480068BDE8F0477F
:102AE000FFF7F8BC002002400010024000B4C4040C
:102AF0000024F40000127A00089E0008340100202F
:102B0000280100200548064900688968054AC1F384
:102B10000221515C01F01F01C840704734010020C0
:102B200000100240189E00080548064900688968A0
:102B3000054AC1F3C221515C01F01F01C840704732
:102B40003401002000100240189E0008184910B5FA
:102B50008868C0F381021748012A0BD08A684310A5
:102B6000C2F38102022A06D08A68C2F38102032AD4
:102B700003D0002010BD184610BDCA6802F003043F
:102B8000CA68C2F30312521C032C02D0B0FBF2F04D
:102B900001E0B3FBF2F0CA68C968C2F306225043F1
:102BA000C1F34161491C4900B0FBF1F010BD0000C8
:102BB000001002400024F4002DE9F84304007AD00C
:102BC0002078F84DC00747D0A868E96800F00C00ED
:102BD00001F003010C2802D0082817D001E00329D6
:102BE00014D06068B0F5803F17D0B0F5A02F2868EA
:102BF00017D020F480302860286820F480202860D6
:102C00006068E0B1FFF7B8F9064614E02868800371
:102C100022D560680028D2D01EE0286840F48030B9
:102C2000EDE740F480202860F7E700BFFFF7A4F944
:102C3000801B642870D828688003F7D50CE0FFF764
:102C40009BF9064605E000BFFFF796F9801B642854
:102C5000F0D828688003F7D4207880074CD5A8687E
:102C6000E96800F00C0001F003010C2802D00428F0
:102C70000DD001E002290AD0E068002828682BD096
:102C800040F480702860FFF777F9064619E028685D
:102C9000400502D5E068002891D06868217C20F0CA
:102CA000FE4040EA01606860BF480068FFF712FC20
:102CB000002800D120E072E1FFF75EF9801B0228B6
:102CC000B8D828684005F7D56868217C20F0FE4018
:102CD00040EA016068600FE020F480702860FFF730
:102CE0004BF9064605E000BFFFF746F9801B0228B6
:102CF000A0D828684005F7D42078000729D5606956
:102D00000028D5F8940013D040F00100C5F89400D5
:102D1000FFF732F9064606E090E000BFFFF72CF916
:102D2000801B022886D8D5F894008007F6D510E0DD
:102D300020F00100C5F89400FFF71EF9064604E0F4
:102D4000FFF71AF9801B022878D8D5F8940080077D
:102D5000F6D42078400761D5A86D0026C00008D4BD
:102D6000A86D40F08050A865A86D012600F0805045
:102D700000908E480168C90511D40168804641F46D
:102D800080710160FFF7F8F8074604E0FFF7F4F8F8
:102D9000C01B022852D8D8F80000C005F6D5A0689C
:102DA000012815D00528D5F8900016D020F0010094
:102DB000C5F89000D5F8900020F00400C5F8900008
:102DC000A06841F28838B8B1FFF7D6F807460EE0A0
:102DD000D5F8900040F00100F0E740F00400C5F89D
:102DE0009000F5E7FFF7C8F8C11B414526D8D5F894
:102DF00090008007F6D50CE0FFF7BEF8074604E028
:102E0000FFF7BAF8C11B414518D8D5F890008007E4
:102E1000F6D41EB1A86D20F08050A86520788006F9
:102E200029D5A0690028D5F8980013D040F00100FA
:102E3000C5F89800FFF7A0F8064606E075E000BF69
:102E4000FFF79AF8801B02286FD8D5F89800800702
:102E5000F6D510E020F00100C5F89800FFF78CF8D7
:102E6000064604E0FFF788F8801B02285DD8D5F8F5
:102E700098008007F6D4E069F0B3A968C1F3810136
:102E800003295DD00228286820F08070286003D0D4
:102E9000FFF772F804464BE0FFF76EF8064604E0D1
:102EA000FFF76AF8801B02283FD828688001F7D412
:102EB000F4E908016FF00F0202EB01110843218AC7
:102EC0005204490802EB4151A26841EA0221084339
:102ED000217D4FF07E42490802EB41610843217B8E
:102EE00040EAC160E968324A11400843E860286856
:102EF00040F08070286000E05EE0E86840F080709C
:102F0000E860FFF739F8044605E000BFFFF734F842
:102F1000001B022809D828688001F7D54CE000BFC3
:102F2000FFF72AF8001B022802D90320BDE8F88326
:102F300028688001F4D4E8681E490840E8603BE056
:102F40000128F3D0E868226A00F00301914226D1FB
:102F5000616A00F0F0020901103991421FD1A26AA2
:102F600000F4FE41B1EB022F19D194F82C2000F0AF
:102F70007841B1EBC26F12D1218E00F4C002490832
:102F80004905A1F50011914209D194F8341000F0DF
:102F9000C06049084906A1F1007181420CD00120AE
:102FA000C4E700000010024028010020007000402B
:102FB0000C809F01FCFFEEFE0020B7E710B5401E1D
:102FC000B0F1807F01D3012010BD4FF0E02460619B
:102FD0000F21601703F041FB0020A0610720206152
:102FE000002010BD704770477047704770477047AA
:102FF000F0B590F83C20012A3AD0012580F83C50E9
:10300000022280F83D2003685A689C68194E1A4FC6
:10301000B34201D0BB4204D122F4700C4A6842EAA8
:103020000C02DFF858C002EA0C02D1F800C04CEAEA
:10303000020CC3F804C00268B2420DD0B2F1804F56
:103040000AD00F4B9A4207D00E4B9A4204D0BA4294
:1030500002D00D4B9A4204D1896824F080031943B1
:10306000916080F83D50002180F83C100846F0BD8A
:103070000220F0BD002C0140003401408FFFFFFD15
:10308000000400400008004000400140704700007C
:1030900090F83D10012901D001207047022180F8ED
:1030A0003D100168CA6842F00102CA600068104918
:1030B00088420ED0B0F1804F0BD00E49884208D024
:1030C0000D49884205D00D49884202D00C498842FA
:1030D00007D181680B4A1140062906D0B1F5803F1F
:1030E00003D0016841F00101016000207047000039
:1030F000002C014000040040000800400034014062
:1031000000400140070001000168B1F1804F01D18A
:1031100000F0BCBE704700002DE9F047054690F86E
:103120003C0000260C46012813D0012085F83C0005
:103130008AB1042A1FD04B49DFF82C91082A2CD0E1
:103140000C2A5AD00126002085F83C003046BDE804
:10315000F0870220FBE7D4E90012E368286802F058
:10316000FBFB2868816921F00C0181612868816975
:10317000A26811430FE0D4E90012E368286802F066
:1031800037FC2868816921F4406181612868816980
:10319000A26841EA02218161D5E72868D4E9007379
:1031A000E268D0F820C0D0F8208028F48078C0F8F9
:1031B0002080884201D0484503D1016A21F4806112
:1031C0000162C16921F00301194321F0F0031107E5
:1031D00043EA11614FF420622CF4206302EA0722D3
:1031E0001A43C16102622868C16921F00C01C16102
:1031F0002868C169A268114332E02868D4E90073E5
:10320000E268D0F820C0D0F8208028F48058C0F8B8
:103210002080884201D0484503D1016A21F48041D1
:103220000162C16921F4407141EA032121F4704334
:103230004FF6FF7101EA023119434FF420422CF49A
:10324000204302EA07321A43C16102622868C16959
:1032500021F44061C1612868C169A26841EA022184
:10326000C16170E7002C01400034014010B504003A
:1032700003D094F83D0010B107E0012010BD0020FC
:1032800084F83C00204600F023F8022084F83D003A
:10329000211D206802F0F6FA012084F8480084F825
:1032A0003E0084F83F0084F8400084F8410084F830
:1032B000420084F8430084F8440084F8450084F810
:1032C000460084F8470084F83D00002010BD00004F
:1032D00010B586B0044614216846FDF745F820680D
:1032E000B0F1804F26D11448816D41F00101816514
:1032F000816D01F001010591C16C41F00101C164D2
:10330000C06C694600F0010005902020009002206A
:103310000190002002900390012004904FF0904013
:10332000FEF70AFD002205211C20FFF721F91C20D1
:10333000FFF710F906B010BD0010024030B504468A
:10334000002571B1042911D0082914D00C2917D0F7
:10335000102918D094F8430094F84720012817D179
:1033600014E094F83E0094F84420F7E794F83F0006
:1033700094F84520F2E794F8400094F84620EDE7F1
:1033800094F84100E8E794F84200E5E7012A01D00B
:10339000012030BD022079B1042916D008291DD0A2
:1033A0000C2949D010294AD084F8430084F84700FA
:1033B0000C2947D001253DE084F83E0084F8440004
:1033C0002068C26842F0020210E084F83F0084F8EE
:1033D00045002068C26842F0040207E084F840001B
:1033E00084F846002068C26842F00802C2600122E8
:1033F000206802F0A3FA1649206888420ED0B0F186
:10340000804F0BD01349884208D01349884205D019
:103410001249884202D01249884207D18168114A74
:103420001140062906D0B1F5803F03D0016841F074
:1034300001010160284630BD84F84100B6E784F8F8
:103440004200B3E72068C26842F01002CEE70000F5
:10345000002C0140000400400008004000340140FE
:1034600000400140070001002DE9F04104460068DA
:10347000C66805694FF00007A90713D5B10711D534
:10348000F91E0161012020772068806980072046AD
:1034900002D0FFF739FE04E000F0B7F8204600F054
:1034A000B5F82777680716D5700714D521686FF02F
:1034B00004000861022020772068806910F4407FB2
:1034C000204602D0FFF720FE04E000F09EF82046E0
:1034D00000F09CF82777280715D5300713D5216809
:1034E0006FF008000861042020772068C069800719
:1034F000204602D0FFF708FE04E000F086F82046E0
:1035000000F084F82777E80616D5F00614D5216870
:103510006FF010000861082020772068C06910F45F
:10352000407F204602D0FFF7EFFD04E000F06DF889
:10353000204600F06BF82777E80708D0F00706D0A0
:1035400021686FF001000861204600F060F828064D
:1035500001D4A80408D5300606D521686FF40250BE
:1035600008612046FFF73FFDE80508D5300606D57F
:1035700021686FF4807008612046FFF733FD68060C
:1035800008D5700606D521686FF040000861204616
:1035900000F059F8A80608D5B00606D521686FF0E6
:1035A000200008612046FFF71FFDE80208D5F00261
:1035B00006D521686FF4801008612046FFF716FDDC
:1035C000A80208D5B00206D521686FF40010086182
:1035D0002046FFF70AFD680208D5700206D521686B
:1035E0006FF4800008612046FFF701FD28020AD52C
:1035F000300208D521686FF4000008612046BDE85C
:10360000F041FFF743BDBDE8F081704770470168A6
:10361000B1F1804F01D100F0BFBC704702460020DD
:1036200041B1042909D008290AD00C2901D1106818
:10363000006C70471068406B70471068806B704773
:103640001068C06B7047704790F88410012918D03B
:10365000012180F884102421C0F8881001680A68CC
:103660000B6823F001030B6022F000510022426638
:10367000036819602021C0F8881080F88420104663
:103680007047022070477047704770B5044690F845
:10369000840001281DD0012084F884002420C4F86F
:1036A000880020680568026822F001020260206834
:1036B000826822F060620A438260204602F0C2F90A
:1036C000206805602020C4F88800002084F8840069
:1036D00070BD022070BD70B5044690F884000128CA
:1036E0001DD0012084F884002420C4F888002068BC
:1036F0000568026822F0010202602068826822F0F8
:1037000060420A438260204602F09CF9206805600E
:103710002020C4F88800002084F8840070BD0220B6
:1037200070BD7047704770472DE9F041036804464B
:10373000D86919689A6840F60F0528424FF00005CD
:103740004FF002060AD187067ED501F0200702F06D
:10375000805C57EA0C0777D0616F42E1B64FDFF823
:10376000DCC2174001EA0C0C57EA0C0C6CD05FEA83
:10377000C07C0CD05FEAC15C09D54FF0010CC3F8E6
:1037800020C0D4F8903043F00103C4F89030830790
:1037900009D5D30707D023681E62D4F8903043F0D0
:1037A0000403C4F8903043070AD5D30708D026682D
:1037B00004233362D4F8903043F00203C4F890300D
:1037C00003070CD501F020033B4308D026680823EB
:1037D0003362D4F8903043F00803C4F89030030506
:1037E0000BD54B0109D526684FF400633362D4F83A
:1037F000903043F02003C4F89030D4F89030002B80
:103800003DD0800609D501F0200002F08051084328
:1038100003D0616F09B120468847D4F89000216831
:103820008968490602D410F0280F2AD0204602F0F9
:10383000EBF92068806840061ED52068083050E803
:10384000001F21F0400100E021E040E80012002AC2
:10385000F3D1D4F8800078B179498163D4F880003D
:10386000FEF71BFA00280AD0D4F88000816B00E034
:103870002046BDE8F04108472046FFF754FFBDE869
:10388000F0812046FFF74FFFC4F89050F7E7D4F8D7
:103890006CC02027BCF1010F7ED15FEAC06C7BD5E4
:1038A0005FEAC16C78D510201862206880684006F5
:1038B00051D5D4F880100A6850680004000C3ED03E
:1038C000B4F85C3083423AD9A4F85E000868006816
:1038D00080062CD4216851E8000F20F4807041E864
:1038E0000002002AF6D12068083050E8001F21F0BD
:1038F000010140E80012002AF5D12068083050E8A4
:10390000001F21F0400140E80012002AF5D1C4F860
:103910008C70E566216851E8000F20F0100041E846
:103920000002002AF6D1D4F88000FEF77EF926675F
:10393000B4F85C00B4F85E10401A81B207E0B4F845
:103940005C1081429BD11068800698D5266720467E
:10395000FFF799FE93E7B4F85C00B4F85E10401AE4
:1039600081B2B4F85E00002889D0002987D022688F
:1039700052E8000F20F4907042E80003002BF6D1CB
:103980002D4BDB432068083050E8002F1A4040E8F8
:10399000002CBCF1000F00E00EE0F3D1C4F88C70F5
:1039A000E5666567206850E8002F22F0100240E8C5
:1039B0000023002BF6D1C9E7C60209D5560207D568
:1039C0004FF4801018622046BDE8F041FFF7AABE10
:1039D00003060AD501F0800302F40002134304D069
:1039E000A16F00297FF444AF49E7420611D54A068A
:1039F0000FD52046016851E8002F22F0400241E82F
:103A00000023002BF6D1C0F88870856700F0ADF96F
:103A100035E7020206D54A0004D52046BDE8F0414C
:103A2000FFF77FBEC00195D5002993DA2046BDE897
:103A3000F041FFF729BE0000010000102001000442
:103A4000FD5B000810B5040003D0D4F8880010B165
:103A500007E0012010BD002084F88400204600F01B
:103A600027F82420C4F888002068016821F00101AB
:103A70000160A06A10B1204602F006F8204602F06C
:103A800055FB0128E6D02068416821F4904141604F
:103A90002068816821F02A0181602068016841F076
:103AA000010101602046BDE8104002F051B800005D
:103AB0002DE9F04198B00446142111A8FCF754FCFC
:103AC00044216846FCF750FC4A4920684A4C0727C5
:103AD000022600254FF09048884232D10120CDE9DE
:103AE00000056846FEF7DCFD08B1FDF7CFFB206E50
:103AF00040F480402066206E00F480401690E06C18
:103B000040F00400E064E06C00F004001690E06C0B
:103B100040F00100E064E06CCDE9126500F00100C6
:103B200016901020CDE91457119011A93348FEF7D3
:103B300003F94FF48060CDE91265119011A9404658
:103B400052E02F4988422CD1684600960295FEF734
:103B5000A7FD08B1FDF79AFBA06D40F40030A06509
:103B6000A06D00F400301690E06C40F00100E064BD
:103B7000E06CCDE9126500F0010016900C20CDE953
:103B80001457119011A94046FEF7D6F800220521DE
:103B90002620FEF7EDFC2620FEF7DCFC18B0BDE881
:103BA000F08118498842F9D10420009003956846B5
:103BB000FEF776FD08B1FDF769FBA06D40F48020AB
:103BC000A065A06D00F480201690E06C40F002002B
:103BD000E064E06CCDE9126500F0020016904FF44D
:103BE00040601190084811A9CDE91457FEF7A4F8D8
:103BF000D4E70000003801400010024000080048EF
:103C000000440040004800400004004830B4D0F8B0
:103C10008C30202B02D0022030BC7047A9B1A2B159
:103C20000023C3660A4C0368A3420BD05B681B02E7
:103C300008D5046854E8003F43F0806344E8003549
:103C4000002DF6D130BC02F0ABBB0120E4E7000050
:103C50000080004030B400681249884220D11248E8
:103C6000C1780023242900D1838081887F290FD245
:103C7000C47881880D4A5518491C81802C70C17800
:103C80000A2906D180881354012082F8B00000E090
:103C900083800549012230BCC91C0548FFF7B6BF27
:103CA00030BC704700440040B40000205C05002098
:103CB000340400202DE9F84F0446D0F888009846D7
:103CC00015460E46202802D00220BDE8F88F96B394
:103CD0008DB30020C4F890004FF02109C4F88890FB
:103CE0001834FEF749F9A5878246E58754F8100C89
:103CF000183CB0F5805F01D1206910B1354600262F
:103D000000E000255FF02007B4F8560053464FF05E
:103D10000002CDF80080D8B18021204602F0C8FB17
:103D2000D8B955B115F8010B21688862D4F888100C
:103D300039EA010006D00120C7E736F8020BC0F3CC
:103D40000800F1E7B4F85600401EA4F85600DBE77F
:103D50004021204602F0ACFB18B1C4F88870032063
:103D6000B3E7C4F888700020AFE77047FEE70000B3
:103D700070B5144A0C000546146240685060E8684B
:103D800090604FF00000107050802868D06106D01D
:103D9000042C06D0082C06D00C2C06D008E00120FC
:103DA00004E0022002E0042000E0082082F8240061
:103DB0002846FFF76DF921462846BDE87040FFF719
:103DC000BDBA0000A80100200A480B4A816991424F
:103DD00003DB9FED0A0A80ED060A8169B1F1804F8D
:103DE00002DD00EE101A70479FED050A80ED060A0D
:103DF00070470000A80100200000E1430000E143FB
:103E00000000000030B585B000256C4600F02CF8AD
:103E10003C20FDF77FFFFFF7D7FF04EB85006D1C0B
:103E200080ED000A052DF1DB0020012101E0411C9D
:103E300011E004EB800204EB810392ED000AD3ED64
:103E4000000AB4EEE00AF1EE10FA03DDC2ED000A5A
:103E500083ED000A491C0529EBDB401C0428E6DB46
:103E60009DED020A05B030BD10B54FF0904401221F
:103E700040212046FEF77AF80120FDF74BFF20464F
:103E80000022BDE810404021FEF770B870B53F4DEC
:103E900004460068E969884231D1207F95F82410F2
:103EA00088422CD129462878096A002640B3012887
:103EB00025D12046FFF7B2FB6988AA6801FB020002
:103EC0002861E968401A6861FCF712FC9FED301B1D
:103ED00053EC112BFCF78CFBFCF77AFCA8612E70DD
:103EE000286A80B3042849D008282068016A4AD08B
:103EF00021F420410162286A2068016A016270BDD4
:103F00002046FFF78BFBE860286AB8B104281BD075
:103F100008282068016A1CD021F420410162286A27
:103F2000D0B104281DD008282068016A1ED041F4B1
:103F3000005101626E800120287070BD2068016A06
:103F400021F00A01EAE714E02068016A21F0A001EB
:103F5000E4E721F42061E1E72068016A41F0020111
:103F6000E7E72068016A41F02001E2E741F40071CF
:103F7000DFE72068016A21F00A01BBE72068016AD7
:103F800021F0A001B6E721F42061B3E7A8010020E9
:103F90000000000000004D4001680448C2699142E1
:103FA00002D14188491C418070470000A8010020CF
:103FB00001688A69D243920701D400228A620068AC
:103FC0008169C943C90703D0816941F00101816159
:103FD000704700002DE9F047044600688946002636
:103FE000816935461746C9064FF0200841D5102192
:103FF000C1612FE0B9F1FF3F2CD0FDF7BDFFC11B20
:10400000494502D8B9F1000F24D12068416894F8DD
:10401000422001F480418369DB431B0415D4B1F5D0
:10402000804F12D0202A10D0416841F48041416075
:10403000FDF7A2FF074608E0FDF79EFFC01B192809
:1040400003D945F02005012604E020688069C043BB
:104050008006F1D420688069C043800602D5002E16
:10406000C8D003E016B92168C1F81C8045F00405EA
:10407000012621688869C20505D54FF4807245F094
:104080000105CA610126410509D522684FF4806106
:1040900045F00805D1610126800502D40AE08005BB
:1040A00007D521684FF4007045F00205C86101266C
:1040B00000E086B12046FFF77BFF54F8240B4168EF
:1040C000064A11404160206A2843206284F81D801E
:1040D0000020A07720773046BDE8F08700E800FE9A
:1040E0002DE9F84304461646DDE90897144898463A
:1040F000DAB200900023204600F056F83A464946CE
:10410000204600F0D1F8B8B9F5B2B8F1010F08D0E7
:104110002168300A88623A464946204600F0C4F8D1
:1041200050B9206885624B46002240212046009706
:1041300000F052F8002800D00120BDE8F88300000C
:10414000002000802DE9F84304461646154898469D
:10415000DDE90897DAB2C3020090204600F024F8A7
:104160003A464946204600F09FF8B8B9F5B2B8F192
:10417000010F08D02168300A88623A464946204635
:1041800000F092F850B9206885624B4600228021E9
:104190002046009700F020F8002800D00120BDE85C
:1041A000F88300000020008010B5C1F3090141EA46
:1041B00002410268029C19432143506821F00041EA
:1041C0004FF4806303EA5453024C2343984308435B
:1041D000506010BDFF63FF032DE9F0411D461746F7
:1041E0000E460446DDF8188027E042462946204660
:1041F000FFF7F0FE10B10120BDE8F081681C1CD073
:10420000FDF7BAFEA0EB0800A84200D8ADB92068BF
:10421000806936EA00000ED00020B8420DD154F873
:10422000440F40F0200044F8040920206070002072
:10423000A0702070DFE70120EFE72068806936EA90
:10424000000004D00020B842CFD00020D4E70120E5
:10425000F9E770B516460D4604461EE0324629467B
:104260002046FFF7B7FE08B1012070BDFDF784FEC0
:10427000801BA84200D885B920688069C0438006A9
:104280000BD554F8440F40F0200044F804092020D6
:1042900060700020A0702070E6E720688069C0434D
:1042A0008006DBD4002070BD70B516460D4604466E
:1042B00020E0324629462046FFF78CFE08B1012057
:1042C00070BD681C16D0FDF757FE801BA84200D8B1
:1042D00085B920688069C04380070BD554F8440F26
:1042E00040F0200044F80409202060700020A070F5
:1042F0002070E4E720688069C0438007D9D400209B
:1043000070BD70B504462DED108B82B0B0EE429AB0
:10431000F0EE629AB0EE40FAF0EE60FA90ED08EB43
:1043200051EC110B53EC1E2BFCF7EAF841EC100B8F
:1043300051EC190B53EC102BFCF7E8F894ED061B2D
:1043400053EC112BFCF73BF894ED10DB41EC1A0B0E
:1043500053EC1D2B51EC190BFCF7D8F80E4646EC2C
:10436000100B94ED0CCB054653EC1C2B51EC100BB1
:10437000FCF7C6F894ED0EBB53EC1B2BFCF7C0F812
:1043800094ED001B53EC112BFCF719F853EC192B8F
:10439000FCF7BCF894ED0A1B53EC112BFCF70FF85B
:1043A00046EC105B41EC180B53EC1C2B51EC100B42
:1043B000FCF7A9F846EC105B41EC1C0B53EC1B2BF3
:1043C00051EC100BFCF79FF894ED020B41EC1B0B2A
:1043D00053EC192B51EC100BFCF798F853EC1D2BF8
:1043E000FBF7EDFF41EC100B51EC180B8DED000BC2
:1043F00094ED040B53EC102BFBF7E1FF41EC190B90
:1044000051EC180B53EC192BFCF7F2F841EC1D0B97
:1044100053EC192B51EC1B0BFCF7EAF841EC190B90
:1044200053EC1A2B51EC1F0BFCF76AF841EC1F0BF5
:1044300051EC1D0B53EC1F2BFCF768F853EC1A2BB7
:10444000FBF7BDFF41EC1A0B53EC1F2B84ED06ABC1
:1044500051EC190BFCF75AF853EC1E2BFBF7AFFF8E
:10446000C4E9080153EC182B51EC1D0BFCF74EF876
:1044700053EC182BFCF747F8C4E90A0153EC1C2B4A
:1044800051EC1D0BFCF742F853EC1C2BFCF73BF8EE
:10449000C4E90C0153EC182B51EC190BFCF736F85E
:1044A00053EC1B2BFCF72FF8C4E90E0153EC1C2B2B
:1044B00051EC190BFCF72AF89DED000B53EC102B77
:1044C000FCF721F8C4E9100102B0B0EE4A0AF0EEA0
:1044D0006A0ABDEC108B70BD00EB8100006E00F02D
:1044E000F84070478068C0F3C00070478068C0F330
:1044F000800070478068C0F380007047C06810F487
:10450000406F01D00020704701207047042303EA68
:10451000D15310B518444369C1F3045107248C40AA
:10452000A3438A401343436110BD00EB8100016E39
:1045300021F000411143016670470000F0B52DEDF8
:104540000A8B83B00C4607469FED94BA0026F0EE26
:104550004B9A9FED938A9FED93AB944DDFED948A38
:104560009FED949A2146384600F088F994ED060BA9
:1045700053EC102B51EC100BFBF7C8FF94ED020B22
:1045800041EC1C0B53EC102B51EC100BFBF7BEFF56
:1045900053EC1C2BFBF713FFFCF71AF900EE100A83
:1045A00002F095FCF0EE40BA94ED040B51EC100BC8
:1045B000FCF70EF900EE100AF0EE6B0A02F0CCFAEE
:1045C00020EE08CA94ED060B51EC100BFCF700F935
:1045D00094ED020B0BEE900A51EC100BFCF7F8F87F
:1045E00000EE100AF0EE6B0AB1EE400A02F0B4FAE7
:1045F00060EE08BA94ED0C0B53EC1A2B51EC100B37
:10460000FBF784FFFCF7E4F894ED0A0B0CEE900A3C
:1046100053EC1A2B51EC100BFBF778FFFCF7D8F892
:10462000D5ED030A00EE100A0A2070EEAC0A60EE27
:10463000A80A4CEE090AC5ED030AD5ED040A30EECE
:10464000800A20EE280A0BEE890A85ED040A03F0A1
:10465000CAF9761CF6B2322E84D30026214638469B
:1046600000F00CF994ED060B53EC102B51EC100BF1
:10467000FBF74CFF94ED020B41EC1C0B53EC102BA1
:1046800051EC100BFBF742FF53EC1C2BFBF797FE92
:10469000FCF79EF800EE100A02F019FCF0EE40BAAA
:1046A00094ED040B51EC100BFCF792F800EE100A9D
:1046B000F0EE6B0A02F050FA20EE08CA94ED060BF9
:1046C00051EC100BFCF784F894ED020B0BEE900A02
:1046D00051EC100BFCF77CF800EE100AF0EE6B0AC0
:1046E000B1EE400A02F038FA60EE08CA94ED0C0B05
:1046F00053EC1A2B51EC100BFBF708FFFCF768F892
:1047000094ED0A0B0BEE900A53EC1A2B51EC100BA4
:10471000FBF7FCFEFCF75CF8D5ED030A00EE100A8F
:104720000A2070EEAB0A60EEA80A4CEE090AC5ED4D
:10473000030A95ED041A3BEE20BA31EE000A20EE92
:10474000280A0CEE890A85ED040A79EE809A03F0B6
:104750004AF9761CF6B2642E80D3DFED170A8BEE91
:10476000208A89EEA00A85ED058A85ED060A10EEFD
:10477000100AFBF7E9FF04460D4618EE100AFBF796
:10478000E3FF41EC100B0DA053EC102BCDE90045DD
:1047900001F0FAFE03B0BDEC0A8BF0BD0000000092
:1047A000E12E654200000040E17A843FB400002021
:1047B00048E17A3F00D7A33C0000C842D0A3D7BC51
:1047C000CDEAB3C9A3A1C6ABD2C6A3BA506974637C
:1047D000683D252E3266A1E320526F6C6C3D252E7C
:1047E0003266A1E30D0A00002DE9F04186B0804653
:1047F000012504A8CDE9000564242B467522D021AB
:1048000002944046FDF770FC9DF81000682803D024
:10481000012006B0BDE8F081002703AE8DF80C70D2
:104820000096CDE9015401236B22D0214046FDF7CB
:104830000DFD07208DF80C000096CDE901540123F1
:104840001922D0214046FDF701FD8DF80C7000962D
:10485000CDE9015401231C22D0214046FDF7F6FC8E
:104860008DF80C700096CDE9015401231B22D02154
:104870004046FDF7EBFC0020CBE700002DE9F047B8
:104880000C462DED0C8B88B09FED9A9B9FED9BDB2A
:104890009FED9CBB9FED9DAB64230E2203A98DE889
:1048A0000E0001233B22D021FDF71EFCBDF80C00B9
:1048B00040BA00B22080BDF80E1049BA0EB2668030
:1048C000BDF8101049BA0DB2A580BDF8121049BA52
:1048D0000FFA81FABDF8141049BA0FB22784BDF857
:1048E000161049BA09B261848946BDF8181049BA50
:1048F00009B2A1848846FBF7EAFE9FED868B53EC54
:10490000182BFBF703FEC4E902013046FBF7DFFE7C
:1049100053EC182BFBF7FAFDC4E904012846FBF71A
:10492000D6FE9FED7E1B53EC112BFBF761FE00EED4
:1049300010AAB8EEC00A9FED7B1AC0EE010A9FEDE7
:104940007A0AC4E90601384630EE800A84ED100A7E
:10495000FBF7BDFE9FED758B53EC182BFBF748FE64
:10496000C4E90A014846FBF7B2FE53EC182BFBF7EB
:104970003FFEC4E90C014046FBF7A9FE53EC182B9F
:10498000FBF736FEC4E90E01FDF7F6FA694D29681A
:10499000401AFBF7ADFE9FED681B53EC112BFBF7A4
:1049A00027FE41EC1C0BFDF7E7FA2860208810FB7E
:1049B00000F1A08810FB0010FBF789FE41EC100B02
:1049C00002F048FAB0EE408AF0EE608A53EC192B00
:1049D00051EC180BFBF7CCFE13D0B4F90200FBF737
:1049E00076FE53EC182BFBF703FE41EC100B01F0A5
:1049F00047FE53EC1D2B51EC100BFBF787FD41ECF0
:104A0000190BB4F90400FBF762FE41EC180BB4F982
:104A100000004042FBF75BFE41EC100BB0EE481A81
:104A2000F0EE681A01F098FF53EC1D2B51EC100BBF
:104A3000FBF76CFD41EC180B53EC1B2BFBF798FEBE
:104A400008D294ED140B53EC1A2B51EC100BFBF71E
:104A5000A7FE0FD353EC1A2B51EC180BFBF7A0FE5B
:104A600011D294ED140B53EC1B2B51EC100BFBF7F4
:104A70007FFE08D22F48503080ED068B84ED148BDA
:104A800094ED140B0FE02B4894ED0C1BB0EE4C2A68
:104A9000F0EE6C2AB0EE480AF0EE680A5030FFF7EC
:104AA00030FC84ED140B02F0CBF953EC1A2B51ECD3
:104AB000100BFBF775FE07D294ED0A0B51EC100BAF
:104AC00081F00041C4E90A011A4894ED0C1BB0EED4
:104AD0004C2AF0EE6C2AB0EE490AF0EE690A083072
:104AE000FFF70FFC84ED120B08B0BDEC0C8BBDE89A
:104AF000F08700000000000000000000F8C1631A09
:104B0000DCA54C4000000000008056C00000000002
:104B100000805640000000000000103F0000000030
:104B20000029CC400000AA43B81E12420000000039
:104B300000606040000000200000000000408F4046
:104B400030B58BB0002408940994202168460A945B
:104B5000FBF70AFC1C484FF0A041042501604FF40C
:104B60004031C0E90114C4600461C0E9054504771F
:104B700044770121016280F82440C462046380F814
:104B80003840C46380F84040FCF704FE08B1FCF7ED
:104B90007DFB08A90C480894FCF77AFB08B1FCF7E8
:104BA00075FB0A4800900620CDE901047F2005949A
:104BB000CDE9030569460448FCF7D6FB002801D07F
:104BC000FCF764FB0BB030BD400200200200300453
:104BD00010B5AEB0142237496846FBF7ACFB002194
:104BE000684602F085FF344C3249142220651431A6
:104BF00005A8FBF7A0FB002105A802F079FF2D49CD
:104C0000A063142228310AA8FBF795FB00210AA80B
:104C100002F06EFF2749E06314223C310FA8FBF736
:104C20008AFB00210FA802F063FF224920641422AE
:104C3000503114A8FBF77FFB002114A802F058FFA5
:104C40001C49E0621422643119A8FBF774FB0021AF
:104C500019A802F04DFF17492063142278311EA8CD
:104C6000FBF769FB00211EA802F042FF11496063B7
:104C700014228C3123A8FBF75EFB002123A802F04D
:104C800037FF606400202D9001212DA802F0C3FEA3
:104C90000021A06402F0FAFE06491422A03128A8DF
:104CA000FBF749FB002128A802F022FFE0642EB0A8
:104CB00010BD00002C9D0008B400002030B587B066
:104CC00014216846FBF750FB1E48C16C41F02001DF
:104CD000C164C16C01F020010591C16C41F001017A
:104CE000C164C16C01F001010591C16C41F0040186
:104CF000C164C16C01F004010591C16C41F0020175
:104D0000C164C06CD22100F002008D060590002223
:104D10002846FDF72BF9D220009001200024CDE990
:104D20000104694628460394FDF706F840200090E8
:104D30004FF48810CDE9010469460348FCF7FCFFF5
:104D400007B030BD0010024000080048134810B5FD
:104D5000114901601249416000210122C0E902129B
:104D6000016141618161C1610162FDF75FF908B1D3
:104D7000FCF78CFA00210948FDF704F908B1FCF7AB
:104D800085FA00210548FDF728F9002803D0BDE881
:104D90001040FCF77BBA10BD00540040AC0200206C
:104DA000822AF310134810B511490160124941607D
:104DB00000210122C0E90212016141618161C161EA
:104DC0000162FDF733F908B1FCF760FA00210948E8
:104DD000FDF7D8F808B1FCF759FA00210548FDF7AE
:104DE000FCF8002803D0BDE81040FCF74FBA10BD16
:104DF0000058004000030020E49DD23010B588B078
:104E00000024184805940694049400940194029494
:104E10004FF08041039401609F21C0E901144FF6D7
:104E2000FF71C0E903148461FEF720FA08B1FCF7B2
:104E30002DFA049404A90B480694FEF7D9F808B19A
:104E4000FCF724FA0120CDE90040029400226946D3
:104E500004480394FEF760F9002801D0FCF716FA25
:104E600008B010BD54030020184810B51649016061
:104E70004FF4E1314160002181600C22C160C0E942
:104E800004128161C161016241628162FEF7DAFD53
:104E900008B1FCF7FBF900210C48FEF71CFC08B137
:104EA000FCF7F4F900210948FEF7EFFB08B1FCF725
:104EB000EDF90648FEF7C8FB002803D0BDE8104016
:104EC000FCF7E4B910BD000000380140A003002049
:104ED000184810B5164901604FF416514160002181
:104EE00081600C22C160C0E904128161C16101626C
:104EF00041628162FEF7A6FD08B1FCF7C7F9002107
:104F00000C48FEF7E8FB08B1FCF7C0F9002109489E
:104F1000FEF7BBFB08B1FCF7B9F90648FEF794FBB6
:104F2000002803D0BDE81040FCF7B0B910BD000068
:104F30000044004034040020184810B516490160B0
:104F40004FF4E1314160002181600C22C160C0E971
:104F500004128161C161016241628162FEF772FDEA
:104F600008B1FCF793F900210C48FEF7B4FB08B137
:104F7000FCF78CF900210948FEF787FB08B1FCF724
:104F800085F90648FEF760FB002803D0BDE8104015
:104F9000FCF77CB910BD000000480040C8040020A8
:104FA000FEE7000010B50C462DED068BFFF766FC02
:104FB00094ED060B53EC102B51EC100BFBF7A6FAFB
:104FC00094ED020B41EC180B53EC102B51EC100B31
:104FD000FBF79CFA53EC182BFBF7F1F9FBF7F8FB06
:104FE00000EE100A01F073FFB0EE408A94ED040B5E
:104FF00051EC100BFBF7ECFB00EE100AF0EE480A48
:1050000001F0AAFDDFED478A20EE289A94ED060B09
:1050100051EC100BFBF7DCFB94ED020B08EE100AD1
:1050200051EC100BFBF7D4FB00EE100AF0EE480A2F
:10503000B1EE400A01F090FD60EE288A94ED0C0B71
:105040009FED39AB51EC100B53EC1A2BFBF75EFACA
:10505000FBF7BEFB94ED0A0B08EE100A53EC1A2B7B
:1050600051EC100BFBF752FAFBF7B2FB304CDFEDC3
:10507000311A9FED311AD4ED030A00EE100A2F49C0
:1050800070EE880A60EEA10A49EE010AC4ED030A37
:1050900094ED042A32EE000A20EE210A08EE810A7D
:1050A00084ED040A94ED051A70EEC10AC4ED070AF6
:1050B000D4ED060A30EE600A84ED080AB0EEC00AAC
:1050C00010EE100A8842A0781EDD88B1012825D193
:1050D00002F095FC616A401A42F2107188421DD3B9
:1050E00017A001F051FAA06C02F0A8FC022014E015
:1050F0000120A07002F083FC606219A0BDEC068B59
:10510000BDE8104001F040BA012802D11CA001F016
:105110003BFAA078022801D00020A070BDEC068BDD
:1051200010BD0000E12E654200000040E17A843F9E
:10513000B400002048E17A3F00D7A33C0000704251
:10514000B5F8B5B9C8B7C8CFA3A1D5FDD4DACDA8F5
:10515000D6AABCE0BBA4C8CB2E2E2E0D0A000000A0
:10516000D2C9CBC6B5F8B5B9A3AC313073BAF3B672
:10517000FEB4CEC8B7C8CF2E2E2E0D0A00000000F8
:10518000BDC7B6C8D2D1BBD6B8B4A3ACC8A1CFFBFB
:10519000D2C9CBC6B5F8B5B9A1A30D0A000000006D
:1051A000FEE770B5002404F1B000C0B200F08CF846
:1051B000002000F089F8102000F086F8002500207B
:1051C00000F094F86D1CEDB2802DF8D3641CE4B2AD
:1051D000082CE8D370BD10B5C820FCF79BFDBDE8D6
:1051E000104001F0B7B910B50446B031C8B200F0B4
:1051F0006BF8102040EA141000F066F804F00F007D
:10520000BDE8104000F060B82DE9F041203A0024DC
:105210000D468046D6B27F2803D900208D1C8046DB
:10522000EDB2102B29460FD0FFF7DDFF164906EB34
:10523000460001EB4005285D00F058F8641CE4B21C
:10524000062CF8D3BDE8F081FFF7CDFF0F4F00BF6C
:1052500004EB0610385C00F049F8641CE4B2082C3A
:10526000F6D36D1CE9B24046FFF7BDFF5FF00004C6
:1052700004EB06103844007A00F038F8641CE4B2FD
:10528000082CF5D3DEE70000649300088C95000835
:105290002DE9F041984617460E46044600250DE0DC
:1052A000434631462046FFF7AFFF0834E4B2782C7E
:1052B00002D90024B61CF6B26D1CEDB27A5D002A4C
:1052C000EED1BDE8F081000001B584B001214FF4BA
:1052D000807204A88DE807000B460022782102485E
:1052E000FCF7B4FF05B000BD0003002001B584B099
:1052F00001214FF4807204A88DE807000B4640227C
:1053000078210248FCF7A2FF05B000BD0003002091
:10531000C82002F068FB4FF0904400220221204692
:10532000FCF724FE0B4E0C4D95ED0A0A10EE100A08
:10533000B04206DAB5EEC00AF1EE10FA01DD012244
:1053400000E0002202212046FCF710FE642002F05B
:105350004AFBE9E700002041B4000020012002F0F0
:1053600042FBFBE7642002F03EFB0AA001F00CF9CF
:1053700001220D490D48FEF749FC4FF47A740CA048
:1053800001F002F902F0CCFB02F06AFC204602F0C8
:105390002AFBF4E7677073207461736B2073746188
:1053A00072740D0A00000000B700002034040020D1
:1053B000677073207461736B20616C6976650D0A88
:1053C00000000000642002F00EFB00210548FEF7FB
:1053D000CFFC05A001F0D8F84FF49674204602F0F7
:1053E00002FBFBE75403002068632D737230342006
:1053F0007374617274210D0A00000000642002F0D1
:10540000F2FA4FF09045002280212846FCF7AEFDCD
:105410000D4C4FF4FA762078322807D201228021F1
:105420002846FCF7A3FD217808A006E00022802191
:105430002846FCF79BFD21780AA001F0A5F830462C
:1054400002F0D1FAE7E70000B4000020B9E2D5D5B8
:105450003D256425252C20D5D5C3F7B5C6B4F2BFAC
:10546000AA0D0A00B9E2D5D53D256425252C20D505
:10547000D5C3F7B5C6B9D8B1D50D0A00642002F07E
:10548000B2FA0F4C40F6FF750E48FCF735FB98B9A1
:105490000A210C48FCF7B2FA58B90A48FCF776F929
:1054A000A060A06864214843B0FBF5F0C0F164003F
:1054B00020700448FCF79AFBC82002F094FAE3E756
:1054C000B4000020400200204FF4FA6002F08BFA92
:1054D0004FF4FA7405E010A001F056F8204602F0EF
:1054E00082FA1348FFF780F90128F4D011A001F0E7
:1054F0004BF816A001F048F840F6B83002F073FA05
:105500001A490B48FFF71AF818490948FFF74AFDEE
:105510000A2002F068FAF7E74D5055363035302052
:10552000B3F5CABCBBAFCAA7B0DC0D0A00000000CF
:10553000AC0200204D50553630353020B3F5CABC92
:10554000BBAFB3C9B9A60D0A00000000C7EBC6BDCA
:10555000B7C5C9E8B1B8A3AC33C3EBBAF3BFAACAA5
:10556000BCD0A3D7BC2E2E2E0D0A0000E8010020CF
:105570001CB5C82002F037FA2B4C4FF4FA7700BF65
:10558000FFF70FFE227829A12A4801F027F8002111
:105590001023284A0846FFF77BFE607840B1224B73
:1055A00025A16433A3F11002224801F017F803E0AB
:1055B00023A1204801F012F810231E4A02210020E6
:1055C000FFF766FEFEF71EFC84ED0A0A10EE100AD5
:1055D000FBF7BAF841EC100B1DA153EC102B15484A
:1055E00000F0FCFF1023134A04210020FFF750FEB7
:1055F000206AFBF7A9F805460E46E069FBF7A4F818
:1056000041EC100BCDE9005653EC102B14A10948C6
:1056100000F0E4FF1023074A06210020FFF738FEC0
:10562000384602F0E0F9ABE7B40000204C3A2564BC
:1056300025250000D00100202573202573000000DF
:105640004750533A2077616974696E672E2E2E0099
:10565000446973743A252E316620636D00000000A2
:10566000503A252E316620523A252E316600000030
:10567000F4B041F2883002F0B6F932A000F084FFB5
:105680003A4E4FF0FF390DF5A2784FF4A07A494613
:10569000B06C02F0FBF90028F9D135A000F074FFDE
:1056A000707898B3402161A8FAF75EFE402151A8B6
:1056B000FAF75AFE2D4F002461AD543706E03A5DEB
:1056C00005EB840034A100F089FF641C27485430A6
:1056D000FAF75FFEA042F2D8244F00246437454613
:1056E00006E03A5D05EB84002BA100F077FF641C17
:1056F0001E486430FAF74DFEA042F2D861AB284A4A
:10570000514601A8009500F04FFF05E0FFE7254A4C
:10571000514601A800F048FF01A923A000F034FF82
:1057200001A927A0FBF74CFC28A000F02DFF0122C7
:1057300002214FF09040FCF719FC002003F06AF8BA
:10574000A5E700005B534D535D20534D53C8CECEAB
:10575000F1BECDD0F7A3ACB5C8B4FDB5F8B5B9B4BA
:10576000A5B7A22E2E2E0D0A00000000B4000020C6
:105770005B534D535D20CAD5B5BDB5F8B5B9D0C59D
:10578000BAC5A3ACD5FDD4DAB7A2CBCDB6CCD0C5C3
:105790002E2E2E0D0A000000303025303258000029
:1057A000B89F0008009F00085B534D535D20B7A2CF
:1057B000CBCDC4DAC8DD3A2025730D0A0000000005
:1057C0003138363133313139313734005B534D5351
:1057D0005D20B6CCD0C5D2D1B7A2CBCDA3ACC8CEBC
:1057E000CEF1BDE1CAF8A1A30D0A000010B5FCF787
:1057F00059FE03F007FC012803D0BDE8104003F078
:1058000017B910BD10B594B038216846FAF7ACFD51
:1058100014210EA8FAF7A8FD0020FCF7DBFE0120FA
:1058200000900004019002200324CDE907045021D8
:10583000CDE909010B900C900D906846FDF7BCF97D
:1058400008B172B6FEE70F20CDE90E0400201090DB
:105850001190129004210EA8FDF766F8002801D0DF
:1058600072B6FEE714B010BD0248016841F4700141
:105870000160704788ED00E00148FDF7F5BD0000CC
:10588000540300202DE9F0430268254B254D264E98
:10589000264C4FF08049984207D0484505D0A84291
:1058A00003D0B04201D0A04203D122F070074A6871
:1058B0003A431F4FDFF87CC0DFF87C8098420DD060
:1058C00048450BD0A84209D0B04207D0A04205D02D
:1058D000B84203D0604501D0404503D122F4407561
:1058E000CA682A434D6922F080022A438D68C56246
:1058F0000D688562984207D0A04205D0B84203D017
:10590000604501D0404501D109690163016841F05A
:1059100004010160012141610260BDE8F0830000E3
:10592000002C014000040040000800400034014009
:1059300000400140004401400048014010B501F022
:105940001F030121046A99408C430462016A9A4052
:105950001143016210BD0000F0B5056A046A24F02D
:10596000010404621B4E1C4FDFF870C0B04209D026
:10597000B84207D0604505D0194CA04202D0194C5E
:10598000A04203D1046A24F0040404628469B04292
:105990000CD0B0F1804F09D0134EB04206D0134E58
:1059A000B04203D0B84201D0604503D124F00304D3
:1059B000144301E044F001041A0724F0F00444EA1F
:1059C000126225F00A0301F00A01194382610162A3
:1059D000F0BD0000002C01400034014000400140B7
:1059E000004401400048014000040040000800401D
:1059F00030B5046A056A25F0100505620F4DA8420E
:105A000002D00F4DA84203D1056A25F0400505627A
:105A1000856925F4407545EA022222F470454FF667
:105A2000FF7202EA033224F0A0032A43A02404EA0E
:105A3000011119438261016230BD0000002C014058
:105A40000034014030B5416EB9B102689168926886
:105A5000C1F342610B4B520F9C5CE50003F108045B
:105A6000A25CB5FBF2F2A0F86A205A5C615CD2003D
:105A7000B2FBF1F1A0F8681030BD0121A0F86A1066
:105A8000F8E70000F89D000890F82810090706D5EF
:105A900001684A68836B22F400421A434A6090F816
:105AA0002810C90706D001684A68C36A22F4003288
:105AB0001A434A6090F82810890706D501684A6899
:105AC000036B22F480321A434A6090F82810490789
:105AD00006D501684A68436B22F480221A434A6063
